{
  "contractName": "epinglage",
  "abi": [
    {
      "anonymous": false,
      "inputs": [
        {
          "indexed": false,
          "name": "message",
          "type": "string"
        },
        {
          "indexed": false,
          "name": "identifiant",
          "type": "string"
        }
      ],
      "name": "Epingler",
      "type": "event"
    },
    {
      "constant": false,
      "inputs": [
        {
          "name": "id",
          "type": "string"
        }
      ],
      "name": "payerStockage",
      "outputs": [
        {
          "name": "",
          "type": "uint256"
        }
      ],
      "payable": true,
      "stateMutability": "payable",
      "type": "function"
    }
  ],
  "bytecode": "0x608060405234801561001057600080fd5b50610325806100206000396000f3fe608060405260043610610041576000357c0100000000000000000000000000000000000000000000000000000000900463ffffffff168063a5f82adc14610046575b600080fd5b610060600480360361005b919081019061011d565b610076565b60405161006d919061020f565b60405180910390f35b600060013411151561008757600080fd5b7fdd055f2510ead63cebc6d8e84f35b0c9ba22d11c23b4e7c2b579497da156069a826040516100b691906101da565b60405180910390a160019050919050565b600082601f83011215156100da57600080fd5b81356100ed6100e882610257565b61022a565b9150808252602083016020830185838301111561010957600080fd5b610114838284610298565b50505092915050565b60006020828403121561012f57600080fd5b600082013567ffffffffffffffff81111561014957600080fd5b610155848285016100c7565b91505092915050565b600061016982610283565b80845261017d8160208601602086016102a7565b610186816102da565b602085010191505092915050565b6000600f82527f6570696e676c65206574207061796500000000000000000000000000000000006020830152604082019050919050565b6101d48161028e565b82525050565b600060408201905081810360008301526101f381610194565b90508181036020830152610207818461015e565b905092915050565b600060208201905061022460008301846101cb565b92915050565b6000604051905081810181811067ffffffffffffffff8211171561024d57600080fd5b8060405250919050565b600067ffffffffffffffff82111561026e57600080fd5b601f19601f8301169050602081019050919050565b600081519050919050565b6000819050919050565b82818337600083830152505050565b60005b838110156102c55780820151818401526020810190506102aa565b838111156102d4576000848401525b50505050565b6000601f19601f830116905091905056fea265627a7a723058209f693866335383d740db068d10e09b6fa6eb1b3069e164e938b6d2797ac2fffd6c6578706572696d656e74616cf50037",
  "source": "pragma solidity ^0.5.0;\r\npragma experimental ABIEncoderV2;\r\n\r\ncontract epinglage{\r\n\r\n    event Epingler(\r\n        //address indexed _from,\r\n        //bytes32 indexed _id,\r\n        //bytes32 documentHash,\r\n        string message,\r\n        string identifiant\r\n    );\r\n\r\n    function payerStockage(string memory id) public payable returns (uint){\r\n\r\n            require(msg.value>1);\r\n            emit Epingler(\"epingle et paye\",id);\r\n            return 1;\r\n    }\r\n\r\n\r\n}\r\n",
  "sourcePath": "C:/Users/thaib/OneDrive/Documents/Projects/Alyra/Defi3/contracts/epinglage.sol",
  "compiler": {
    "name": "solc",
    "version": "0.5.0+commit.1d4f565a.Emscripten.clang"
  },
  "schemaVersion": "3.0.9",
  "updatedAt": "2019-06-04T11:01:06.651Z",
  "devdoc": {
    "methods": {}
  },
  "userdoc": {
    "methods": {}
  }
}