{
  "contractName": "epinglage",
  "abi": [
    {
      "anonymous": false,
      "inputs": [
        {
          "indexed": false,
          "name": "documentHash",
          "type": "bytes32"
        },
        {
          "indexed": false,
          "name": "identifiant",
          "type": "uint256"
        }
      ],
      "name": "Epingler",
      "type": "event"
    },
    {
      "constant": false,
      "inputs": [
        {
          "name": "documentHash",
          "type": "bytes32"
        },
        {
          "name": "id",
          "type": "uint256"
        }
      ],
      "name": "payerStockage",
      "outputs": [
        {
          "name": "",
          "type": "uint256"
        }
      ],
      "payable": true,
      "stateMutability": "payable",
      "type": "function"
    }
  ],
  "bytecode": "0x608060405234801561001057600080fd5b506101f2806100206000396000f3fe608060405260043610610041576000357c0100000000000000000000000000000000000000000000000000000000900463ffffffff16806301412d3f14610046575b600080fd5b610060600480360361005b91908101906100f2565b610076565b60405161006d9190610175565b60405180910390f35b600060013411151561008757600080fd5b7f3668d5cc4cc69fb933b4eb82450ea39b69ef7d359476203382ad7a9e847e46fa83836040516100b892919061014c565b60405180910390a16001905092915050565b60006100d682356101a4565b905092915050565b60006100ea82356101ae565b905092915050565b6000806040838503121561010557600080fd5b6000610113858286016100ca565b9250506020610124858286016100de565b9150509250929050565b61013781610190565b82525050565b6101468161019a565b82525050565b6000604082019050610161600083018561012e565b61016e602083018461013d565b9392505050565b600060208201905061018a600083018461013d565b92915050565b6000819050919050565b6000819050919050565b6000819050919050565b600081905091905056fea265627a7a72305820d1b68c71a63ef092aeb0c5b7e01dccdbe66f40d84706b719e765b7b3fb7d69426c6578706572696d656e74616cf50037",
  "source": "pragma solidity ^0.5.0;\r\npragma experimental ABIEncoderV2;\r\n\r\ncontract epinglage{\r\n\r\n    event Epingler(\r\n        //address indexed _from,\r\n        //bytes32 indexed _id,\r\n        bytes32 documentHash,\r\n        uint identifiant\r\n    );\r\n\r\n    function payerStockage(bytes32 documentHash,uint id) public payable returns (uint){\r\n\r\n            require(msg.value>1);\r\n            emit Epingler(documentHash,id);\r\n            return 1;\r\n    }\r\n\r\n\r\n}\r\n",
  "sourcePath": "C:/Users/thaib/OneDrive/Documents/Projects/Alyra/Defi3/contracts/epinglage.sol",
  "compiler": {
    "name": "solc",
    "version": "0.5.0+commit.1d4f565a.Emscripten.clang"
  },
  "schemaVersion": "3.0.9",
  "updatedAt": "2019-06-04T11:01:06.651Z",
  "devdoc": {
    "methods": {}
  },
  "userdoc": {
    "methods": {}
  }
}